{
  "_format": "hh-sol-artifact-1",
  "contractName": "Nft",
  "sourceName": "contracts/Nft.sol",
  "abi": [
    {
      "inputs": [],
      "stateMutability": "nonpayable",
      "type": "constructor"
    },
    {
      "anonymous": false,
      "inputs": [
        {
          "indexed": true,
          "internalType": "address",
          "name": "owner",
          "type": "address"
        },
        {
          "indexed": true,
          "internalType": "address",
          "name": "approved",
          "type": "address"
        },
        {
          "indexed": true,
          "internalType": "uint256",
          "name": "tokenId",
          "type": "uint256"
        }
      ],
      "name": "Approval",
      "type": "event"
    },
    {
      "anonymous": false,
      "inputs": [
        {
          "indexed": true,
          "internalType": "address",
          "name": "owner",
          "type": "address"
        },
        {
          "indexed": true,
          "internalType": "address",
          "name": "operator",
          "type": "address"
        },
        {
          "indexed": false,
          "internalType": "bool",
          "name": "approved",
          "type": "bool"
        }
      ],
      "name": "ApprovalForAll",
      "type": "event"
    },
    {
      "anonymous": false,
      "inputs": [
        {
          "indexed": false,
          "internalType": "address",
          "name": "sender",
          "type": "address"
        },
        {
          "indexed": false,
          "internalType": "uint256",
          "name": "tokenId",
          "type": "uint256"
        }
      ],
      "name": "NewEpicNFTMinted",
      "type": "event"
    },
    {
      "anonymous": false,
      "inputs": [
        {
          "indexed": true,
          "internalType": "address",
          "name": "from",
          "type": "address"
        },
        {
          "indexed": true,
          "internalType": "address",
          "name": "to",
          "type": "address"
        },
        {
          "indexed": true,
          "internalType": "uint256",
          "name": "tokenId",
          "type": "uint256"
        }
      ],
      "name": "Transfer",
      "type": "event"
    },
    {
      "inputs": [],
      "name": "_tokenIds",
      "outputs": [
        {
          "internalType": "uint256",
          "name": "_value",
          "type": "uint256"
        }
      ],
      "stateMutability": "view",
      "type": "function"
    },
    {
      "inputs": [
        {
          "internalType": "address",
          "name": "to",
          "type": "address"
        },
        {
          "internalType": "uint256",
          "name": "tokenId",
          "type": "uint256"
        }
      ],
      "name": "approve",
      "outputs": [],
      "stateMutability": "nonpayable",
      "type": "function"
    },
    {
      "inputs": [
        {
          "internalType": "address",
          "name": "owner",
          "type": "address"
        }
      ],
      "name": "balanceOf",
      "outputs": [
        {
          "internalType": "uint256",
          "name": "",
          "type": "uint256"
        }
      ],
      "stateMutability": "view",
      "type": "function"
    },
    {
      "inputs": [
        {
          "internalType": "uint256",
          "name": "tokenId",
          "type": "uint256"
        }
      ],
      "name": "getApproved",
      "outputs": [
        {
          "internalType": "address",
          "name": "",
          "type": "address"
        }
      ],
      "stateMutability": "view",
      "type": "function"
    },
    {
      "inputs": [
        {
          "internalType": "address",
          "name": "owner",
          "type": "address"
        },
        {
          "internalType": "address",
          "name": "operator",
          "type": "address"
        }
      ],
      "name": "isApprovedForAll",
      "outputs": [
        {
          "internalType": "bool",
          "name": "",
          "type": "bool"
        }
      ],
      "stateMutability": "view",
      "type": "function"
    },
    {
      "inputs": [],
      "name": "makeNFT",
      "outputs": [],
      "stateMutability": "nonpayable",
      "type": "function"
    },
    {
      "inputs": [],
      "name": "name",
      "outputs": [
        {
          "internalType": "string",
          "name": "",
          "type": "string"
        }
      ],
      "stateMutability": "view",
      "type": "function"
    },
    {
      "inputs": [
        {
          "internalType": "uint256",
          "name": "tokenId",
          "type": "uint256"
        }
      ],
      "name": "ownerOf",
      "outputs": [
        {
          "internalType": "address",
          "name": "",
          "type": "address"
        }
      ],
      "stateMutability": "view",
      "type": "function"
    },
    {
      "inputs": [
        {
          "internalType": "address",
          "name": "from",
          "type": "address"
        },
        {
          "internalType": "address",
          "name": "to",
          "type": "address"
        },
        {
          "internalType": "uint256",
          "name": "tokenId",
          "type": "uint256"
        }
      ],
      "name": "safeTransferFrom",
      "outputs": [],
      "stateMutability": "nonpayable",
      "type": "function"
    },
    {
      "inputs": [
        {
          "internalType": "address",
          "name": "from",
          "type": "address"
        },
        {
          "internalType": "address",
          "name": "to",
          "type": "address"
        },
        {
          "internalType": "uint256",
          "name": "tokenId",
          "type": "uint256"
        },
        {
          "internalType": "bytes",
          "name": "_data",
          "type": "bytes"
        }
      ],
      "name": "safeTransferFrom",
      "outputs": [],
      "stateMutability": "nonpayable",
      "type": "function"
    },
    {
      "inputs": [
        {
          "internalType": "address",
          "name": "operator",
          "type": "address"
        },
        {
          "internalType": "bool",
          "name": "approved",
          "type": "bool"
        }
      ],
      "name": "setApprovalForAll",
      "outputs": [],
      "stateMutability": "nonpayable",
      "type": "function"
    },
    {
      "inputs": [
        {
          "internalType": "bytes4",
          "name": "interfaceId",
          "type": "bytes4"
        }
      ],
      "name": "supportsInterface",
      "outputs": [
        {
          "internalType": "bool",
          "name": "",
          "type": "bool"
        }
      ],
      "stateMutability": "view",
      "type": "function"
    },
    {
      "inputs": [],
      "name": "symbol",
      "outputs": [
        {
          "internalType": "string",
          "name": "",
          "type": "string"
        }
      ],
      "stateMutability": "view",
      "type": "function"
    },
    {
      "inputs": [
        {
          "internalType": "uint256",
          "name": "tokenId",
          "type": "uint256"
        }
      ],
      "name": "tokenURI",
      "outputs": [
        {
          "internalType": "string",
          "name": "",
          "type": "string"
        }
      ],
      "stateMutability": "view",
      "type": "function"
    },
    {
      "inputs": [
        {
          "internalType": "address",
          "name": "from",
          "type": "address"
        },
        {
          "internalType": "address",
          "name": "to",
          "type": "address"
        },
        {
          "internalType": "uint256",
          "name": "tokenId",
          "type": "uint256"
        }
      ],
      "name": "transferFrom",
      "outputs": [],
      "stateMutability": "nonpayable",
      "type": "function"
    }
  ],
  "bytecode": "0x60806040523480156200001157600080fd5b506040518060400160405280600881526020017f416e696d654e46540000000000000000000000000000000000000000000000008152506040518060400160405280600581526020017f414e494d45000000000000000000000000000000000000000000000000000000815250816000908051906020019062000096929190620001cf565b508060019080519060200190620000af929190620001cf565b505050620000fd6040518060400160405280601e81526020017f54686973206973206d79204e465420636f6e74726163742e20576f61682100008152506200010360201b62000e031760201c565b620003ac565b620001a3816040516024016200011a9190620002c0565b6040516020818303038152906040527f41304fac000000000000000000000000000000000000000000000000000000007bffffffffffffffffffffffffffffffffffffffffffffffffffffffff19166020820180517bffffffffffffffffffffffffffffffffffffffffffffffffffffffff8381831617835250505050620001a660201b60201c565b50565b60008151905060006a636f6e736f6c652e6c6f679050602083016000808483855afa5050505050565b828054620001dd9062000336565b90600052602060002090601f0160209004810192826200020157600085556200024d565b82601f106200021c57805160ff19168380011785556200024d565b828001600101855582156200024d579182015b828111156200024c5782518255916020019190600101906200022f565b5b5090506200025c919062000260565b5090565b5b808211156200027b57600081600090555060010162000261565b5090565b60006200028c82620002e4565b620002988185620002ef565b9350620002aa81856020860162000300565b620002b5816200039b565b840191505092915050565b60006020820190508181036000830152620002dc81846200027f565b905092915050565b600081519050919050565b600082825260208201905092915050565b60005b838110156200032057808201518184015260208101905062000303565b8381111562000330576000848401525b50505050565b600060028204905060018216806200034f57607f821691505b602082108114156200036657620003656200036c565b5b50919050565b7f4e487b7100000000000000000000000000000000000000000000000000000000600052602260045260246000fd5b6000601f19601f8301169050919050565b612eea80620003bc6000396000f3fe608060405234801561001057600080fd5b50600436106100f55760003560e01c806370a0823111610097578063b036b4bd11610066578063b036b4bd14610284578063b88d4fde1461028e578063c87b56dd146102aa578063e985e9c5146102da576100f5565b806370a08231146101fc57806395d89b411461022c578063a22cb4651461024a578063aa46a40014610266576100f5565b8063095ea7b3116100d3578063095ea7b31461017857806323b872dd1461019457806342842e0e146101b05780636352211e146101cc576100f5565b806301ffc9a7146100fa57806306fdde031461012a578063081812fc14610148575b600080fd5b610114600480360381019061010f9190611f9f565b61030a565b60405161012191906123ce565b60405180910390f35b6101326103ec565b60405161013f91906123e9565b60405180910390f35b610162600480360381019061015d9190611ff1565b61047e565b60405161016f919061233e565b60405180910390f35b610192600480360381019061018d9190611f63565b610503565b005b6101ae60048036038101906101a99190611e5d565b61061b565b005b6101ca60048036038101906101c59190611e5d565b61067b565b005b6101e660048036038101906101e19190611ff1565b61069b565b6040516101f3919061233e565b60405180910390f35b61021660048036038101906102119190611df8565b61074d565b604051610223919061260b565b60405180910390f35b610234610805565b60405161024191906123e9565b60405180910390f35b610264600480360381019061025f9190611f27565b610897565b005b61026e6108ad565b60405161027b919061260b565b60405180910390f35b61028c6108b9565b005b6102a860048036038101906102a39190611eac565b610bbb565b005b6102c460048036038101906102bf9190611ff1565b610c1d565b6040516102d191906123e9565b60405180910390f35b6102f460048036038101906102ef9190611e21565b610d6f565b60405161030191906123ce565b60405180910390f35b60007f80ac58cd000000000000000000000000000000000000000000000000000000007bffffffffffffffffffffffffffffffffffffffffffffffffffffffff1916827bffffffffffffffffffffffffffffffffffffffffffffffffffffffff191614806103d557507f5b5e139f000000000000000000000000000000000000000000000000000000007bffffffffffffffffffffffffffffffffffffffffffffffffffffffff1916827bffffffffffffffffffffffffffffffffffffffffffffffffffffffff1916145b806103e557506103e482610e9c565b5b9050919050565b6060600080546103fb90612830565b80601f016020809104026020016040519081016040528092919081815260200182805461042790612830565b80156104745780601f1061044957610100808354040283529160200191610474565b820191906000526020600020905b81548152906001019060200180831161045757829003601f168201915b5050505050905090565b600061048982610f06565b6104c8576040517f08c379a00000000000000000000000000000000000000000000000000000000081526004016104bf9061258b565b60405180910390fd5b6004600083815260200190815260200160002060009054906101000a900473ffffffffffffffffffffffffffffffffffffffff169050919050565b600061050e8261069b565b90508073ffffffffffffffffffffffffffffffffffffffff168373ffffffffffffffffffffffffffffffffffffffff16141561057f576040517f08c379a0000000000000000000000000000000000000000000000000000000008152600401610576906125cb565b60405180910390fd5b8073ffffffffffffffffffffffffffffffffffffffff1661059e610f72565b73ffffffffffffffffffffffffffffffffffffffff1614806105cd57506105cc816105c7610f72565b610d6f565b5b61060c576040517f08c379a0000000000000000000000000000000000000000000000000000000008152600401610603906124cb565b60405180910390fd5b6106168383610f7a565b505050565b61062c610626610f72565b82611033565b61066b576040517f08c379a0000000000000000000000000000000000000000000000000000000008152600401610662906125eb565b60405180910390fd5b610676838383611111565b505050565b61069683838360405180602001604052806000815250610bbb565b505050565b6000806002600084815260200190815260200160002060009054906101000a900473ffffffffffffffffffffffffffffffffffffffff169050600073ffffffffffffffffffffffffffffffffffffffff168173ffffffffffffffffffffffffffffffffffffffff161415610744576040517f08c379a000000000000000000000000000000000000000000000000000000000815260040161073b9061250b565b60405180910390fd5b80915050919050565b60008073ffffffffffffffffffffffffffffffffffffffff168273ffffffffffffffffffffffffffffffffffffffff1614156107be576040517f08c379a00000000000000000000000000000000000000000000000000000000081526004016107b5906124eb565b60405180910390fd5b600360008373ffffffffffffffffffffffffffffffffffffffff1673ffffffffffffffffffffffffffffffffffffffff168152602001908152602001600020549050919050565b60606001805461081490612830565b80601f016020809104026020016040519081016040528092919081815260200182805461084090612830565b801561088d5780601f106108625761010080835404028352916020019161088d565b820191906000526020600020905b81548152906001019060200180831161087057829003601f168201915b5050505050905090565b6108a96108a2610f72565b8383611378565b5050565b60078060000154905081565b60006108c560076114e5565b905060006040518061014001604052806040518060400160405280601d81526020017f68747470733a2f2f6a736f6e6b65657065722e636f6d2f622f4743515400000081525081526020016040518060400160405280601d81526020017f68747470733a2f2f6a736f6e6b65657065722e636f6d2f622f504b384a00000081525081526020016040518060400160405280601d81526020017f68747470733a2f2f6a736f6e6b65657065722e636f6d2f622f5a5a4c5a00000081525081526020016040518060400160405280601d81526020017f68747470733a2f2f6a736f6e6b65657065722e636f6d2f622f3331333700000081525081526020016040518060400160405280601d81526020017f68747470733a2f2f6a736f6e6b65657065722e636f6d2f622f5650503900000081525081526020016040518060400160405280601d81526020017f68747470733a2f2f6a736f6e6b65657065722e636f6d2f622f4441314300000081525081526020016040518060400160405280601d81526020017f68747470733a2f2f6a736f6e6b65657065722e636f6d2f622f5959324100000081525081526020016040518060400160405280601d81526020017f68747470733a2f2f6a736f6e6b65657065722e636f6d2f622f41475a3500000081525081526020016040518060400160405280601d81526020017f68747470733a2f2f6a736f6e6b65657065722e636f6d2f622f4c55475600000081525081526020016040518060400160405280601d81526020017f68747470733a2f2f6a736f6e6b65657065722e636f6d2f622f5a4a4a310000008152508152509050610b2d33836114f3565b610b74828284600a8110610b6a577f4e487b7100000000000000000000000000000000000000000000000000000000600052603260045260246000fd5b6020020151611511565b610b7e6007611585565b7febb98688741ffa4c7589bf325de30cf7becb63de567842e1ccdb6cb949fdc82c3383604051610baf9291906123a5565b60405180910390a15050565b610bcc610bc6610f72565b83611033565b610c0b576040517f08c379a0000000000000000000000000000000000000000000000000000000008152600401610c02906125eb565b60405180910390fd5b610c178484848461159b565b50505050565b6060610c2882610f06565b610c67576040517f08c379a0000000000000000000000000000000000000000000000000000000008152600401610c5e9061256b565b60405180910390fd5b6000600660008481526020019081526020016000208054610c8790612830565b80601f0160208091040260200160405190810160405280929190818152602001828054610cb390612830565b8015610d005780601f10610cd557610100808354040283529160200191610d00565b820191906000526020600020905b815481529060010190602001808311610ce357829003601f168201915b505050505090506000610d116115f7565b9050600081511415610d27578192505050610d6a565b600082511115610d5c578082604051602001610d4492919061231a565b60405160208183030381529060405292505050610d6a565b610d658461160e565b925050505b919050565b6000600560008473ffffffffffffffffffffffffffffffffffffffff1673ffffffffffffffffffffffffffffffffffffffff16815260200190815260200160002060008373ffffffffffffffffffffffffffffffffffffffff1673ffffffffffffffffffffffffffffffffffffffff16815260200190815260200160002060009054906101000a900460ff16905092915050565b610e9981604051602401610e1791906123e9565b6040516020818303038152906040527f41304fac000000000000000000000000000000000000000000000000000000007bffffffffffffffffffffffffffffffffffffffffffffffffffffffff19166020820180517bffffffffffffffffffffffffffffffffffffffffffffffffffffffff83818316178352505050506116b5565b50565b60007f01ffc9a7000000000000000000000000000000000000000000000000000000007bffffffffffffffffffffffffffffffffffffffffffffffffffffffff1916827bffffffffffffffffffffffffffffffffffffffffffffffffffffffff1916149050919050565b60008073ffffffffffffffffffffffffffffffffffffffff166002600084815260200190815260200160002060009054906101000a900473ffffffffffffffffffffffffffffffffffffffff1673ffffffffffffffffffffffffffffffffffffffff1614159050919050565b600033905090565b816004600083815260200190815260200160002060006101000a81548173ffffffffffffffffffffffffffffffffffffffff021916908373ffffffffffffffffffffffffffffffffffffffff160217905550808273ffffffffffffffffffffffffffffffffffffffff16610fed8361069b565b73ffffffffffffffffffffffffffffffffffffffff167f8c5be1e5ebec7d5bd14f71427d1e84f3dd0314c0f7b2291e5b200ac8c7c3b92560405160405180910390a45050565b600061103e82610f06565b61107d576040517f08c379a0000000000000000000000000000000000000000000000000000000008152600401611074906124ab565b60405180910390fd5b60006110888361069b565b90508073ffffffffffffffffffffffffffffffffffffffff168473ffffffffffffffffffffffffffffffffffffffff1614806110f757508373ffffffffffffffffffffffffffffffffffffffff166110df8461047e565b73ffffffffffffffffffffffffffffffffffffffff16145b8061110857506111078185610d6f565b5b91505092915050565b8273ffffffffffffffffffffffffffffffffffffffff166111318261069b565b73ffffffffffffffffffffffffffffffffffffffff1614611187576040517f08c379a000000000000000000000000000000000000000000000000000000000815260040161117e9061242b565b60405180910390fd5b600073ffffffffffffffffffffffffffffffffffffffff168273ffffffffffffffffffffffffffffffffffffffff1614156111f7576040517f08c379a00000000000000000000000000000000000000000000000000000000081526004016111ee9061246b565b60405180910390fd5b6112028383836116de565b61120d600082610f7a565b6001600360008573ffffffffffffffffffffffffffffffffffffffff1673ffffffffffffffffffffffffffffffffffffffff168152602001908152602001600020600082825461125d9190612746565b925050819055506001600360008473ffffffffffffffffffffffffffffffffffffffff1673ffffffffffffffffffffffffffffffffffffffff16815260200190815260200160002060008282546112b491906126bf565b92505081905550816002600083815260200190815260200160002060006101000a81548173ffffffffffffffffffffffffffffffffffffffff021916908373ffffffffffffffffffffffffffffffffffffffff160217905550808273ffffffffffffffffffffffffffffffffffffffff168473ffffffffffffffffffffffffffffffffffffffff167fddf252ad1be2c89b69c2b068fc378daa952ba7f163c4a11628f55a4df523b3ef60405160405180910390a46113738383836116e3565b505050565b8173ffffffffffffffffffffffffffffffffffffffff168373ffffffffffffffffffffffffffffffffffffffff1614156113e7576040517f08c379a00000000000000000000000000000000000000000000000000000000081526004016113de9061248b565b60405180910390fd5b80600560008573ffffffffffffffffffffffffffffffffffffffff1673ffffffffffffffffffffffffffffffffffffffff16815260200190815260200160002060008473ffffffffffffffffffffffffffffffffffffffff1673ffffffffffffffffffffffffffffffffffffffff16815260200190815260200160002060006101000a81548160ff0219169083151502179055508173ffffffffffffffffffffffffffffffffffffffff168373ffffffffffffffffffffffffffffffffffffffff167f17307eab39ab6107e8899845ad3d59bd9653f200f220920489ca2b5937696c31836040516114d891906123ce565b60405180910390a3505050565b600081600001549050919050565b61150d8282604051806020016040528060008152506116e8565b5050565b61151a82610f06565b611559576040517f08c379a00000000000000000000000000000000000000000000000000000000081526004016115509061252b565b60405180910390fd5b80600660008481526020019081526020016000209080519060200190611580929190611c84565b505050565b6001816000016000828254019250508190555050565b6115a6848484611111565b6115b284848484611743565b6115f1576040517f08c379a00000000000000000000000000000000000000000000000000000000081526004016115e89061240b565b60405180910390fd5b50505050565b606060405180602001604052806000815250905090565b606061161982610f06565b611658576040517f08c379a000000000000000000000000000000000000000000000000000000000815260040161164f906125ab565b60405180910390fd5b60006116626115f7565b9050600081511161168257604051806020016040528060008152506116ad565b8061168c846118da565b60405160200161169d92919061231a565b6040516020818303038152906040525b915050919050565b60008151905060006a636f6e736f6c652e6c6f679050602083016000808483855afa5050505050565b505050565b505050565b6116f28383611a87565b6116ff6000848484611743565b61173e576040517f08c379a00000000000000000000000000000000000000000000000000000000081526004016117359061240b565b60405180910390fd5b505050565b60006117648473ffffffffffffffffffffffffffffffffffffffff16611c61565b156118cd578373ffffffffffffffffffffffffffffffffffffffff1663150b7a0261178d610f72565b8786866040518563ffffffff1660e01b81526004016117af9493929190612359565b602060405180830381600087803b1580156117c957600080fd5b505af19250505080156117fa57506040513d601f19601f820116820180604052508101906117f79190611fc8565b60015b61187d573d806000811461182a576040519150601f19603f3d011682016040523d82523d6000602084013e61182f565b606091505b50600081511415611875576040517f08c379a000000000000000000000000000000000000000000000000000000000815260040161186c9061240b565b60405180910390fd5b805181602001fd5b63150b7a0260e01b7bffffffffffffffffffffffffffffffffffffffffffffffffffffffff1916817bffffffffffffffffffffffffffffffffffffffffffffffffffffffff1916149150506118d2565b600190505b949350505050565b60606000821415611922576040518060400160405280600181526020017f30000000000000000000000000000000000000000000000000000000000000008152509050611a82565b600082905060005b6000821461195457808061193d90612893565b915050600a8261194d9190612715565b915061192a565b60008167ffffffffffffffff811115611996577f4e487b7100000000000000000000000000000000000000000000000000000000600052604160045260246000fd5b6040519080825280601f01601f1916602001820160405280156119c85781602001600182028036833780820191505090505b5090505b60008514611a7b576001826119e19190612746565b9150600a856119f091906128dc565b60306119fc91906126bf565b60f81b818381518110611a38577f4e487b7100000000000000000000000000000000000000000000000000000000600052603260045260246000fd5b60200101907effffffffffffffffffffffffffffffffffffffffffffffffffffffffffffff1916908160001a905350600a85611a749190612715565b94506119cc565b8093505050505b919050565b600073ffffffffffffffffffffffffffffffffffffffff168273ffffffffffffffffffffffffffffffffffffffff161415611af7576040517f08c379a0000000000000000000000000000000000000000000000000000000008152600401611aee9061254b565b60405180910390fd5b611b0081610f06565b15611b40576040517f08c379a0000000000000000000000000000000000000000000000000000000008152600401611b379061244b565b60405180910390fd5b611b4c600083836116de565b6001600360008473ffffffffffffffffffffffffffffffffffffffff1673ffffffffffffffffffffffffffffffffffffffff1681526020019081526020016000206000828254611b9c91906126bf565b92505081905550816002600083815260200190815260200160002060006101000a81548173ffffffffffffffffffffffffffffffffffffffff021916908373ffffffffffffffffffffffffffffffffffffffff160217905550808273ffffffffffffffffffffffffffffffffffffffff16600073ffffffffffffffffffffffffffffffffffffffff167fddf252ad1be2c89b69c2b068fc378daa952ba7f163c4a11628f55a4df523b3ef60405160405180910390a4611c5d600083836116e3565b5050565b6000808273ffffffffffffffffffffffffffffffffffffffff163b119050919050565b828054611c9090612830565b90600052602060002090601f016020900481019282611cb25760008555611cf9565b82601f10611ccb57805160ff1916838001178555611cf9565b82800160010185558215611cf9579182015b82811115611cf8578251825591602001919060010190611cdd565b5b509050611d069190611d0a565b5090565b5b80821115611d23576000816000905550600101611d0b565b5090565b6000611d3a611d358461264b565b612626565b905082815260208101848484011115611d5257600080fd5b611d5d8482856127ee565b509392505050565b600081359050611d7481612e58565b92915050565b600081359050611d8981612e6f565b92915050565b600081359050611d9e81612e86565b92915050565b600081519050611db381612e86565b92915050565b600082601f830112611dca57600080fd5b8135611dda848260208601611d27565b91505092915050565b600081359050611df281612e9d565b92915050565b600060208284031215611e0a57600080fd5b6000611e1884828501611d65565b91505092915050565b60008060408385031215611e3457600080fd5b6000611e4285828601611d65565b9250506020611e5385828601611d65565b9150509250929050565b600080600060608486031215611e7257600080fd5b6000611e8086828701611d65565b9350506020611e9186828701611d65565b9250506040611ea286828701611de3565b9150509250925092565b60008060008060808587031215611ec257600080fd5b6000611ed087828801611d65565b9450506020611ee187828801611d65565b9350506040611ef287828801611de3565b925050606085013567ffffffffffffffff811115611f0f57600080fd5b611f1b87828801611db9565b91505092959194509250565b60008060408385031215611f3a57600080fd5b6000611f4885828601611d65565b9250506020611f5985828601611d7a565b9150509250929050565b60008060408385031215611f7657600080fd5b6000611f8485828601611d65565b9250506020611f9585828601611de3565b9150509250929050565b600060208284031215611fb157600080fd5b6000611fbf84828501611d8f565b91505092915050565b600060208284031215611fda57600080fd5b6000611fe884828501611da4565b91505092915050565b60006020828403121561200357600080fd5b600061201184828501611de3565b91505092915050565b6120238161277a565b82525050565b6120328161278c565b82525050565b60006120438261267c565b61204d8185612692565b935061205d8185602086016127fd565b612066816129c9565b840191505092915050565b600061207c82612687565b61208681856126a3565b93506120968185602086016127fd565b61209f816129c9565b840191505092915050565b60006120b582612687565b6120bf81856126b4565b93506120cf8185602086016127fd565b80840191505092915050565b60006120e86032836126a3565b91506120f3826129da565b604082019050919050565b600061210b6025836126a3565b915061211682612a29565b604082019050919050565b600061212e601c836126a3565b915061213982612a78565b602082019050919050565b60006121516024836126a3565b915061215c82612aa1565b604082019050919050565b60006121746019836126a3565b915061217f82612af0565b602082019050919050565b6000612197602c836126a3565b91506121a282612b19565b604082019050919050565b60006121ba6038836126a3565b91506121c582612b68565b604082019050919050565b60006121dd602a836126a3565b91506121e882612bb7565b604082019050919050565b60006122006029836126a3565b915061220b82612c06565b604082019050919050565b6000612223602e836126a3565b915061222e82612c55565b604082019050919050565b60006122466020836126a3565b915061225182612ca4565b602082019050919050565b60006122696031836126a3565b915061227482612ccd565b604082019050919050565b600061228c602c836126a3565b915061229782612d1c565b604082019050919050565b60006122af602f836126a3565b91506122ba82612d6b565b604082019050919050565b60006122d26021836126a3565b91506122dd82612dba565b604082019050919050565b60006122f56031836126a3565b915061230082612e09565b604082019050919050565b612314816127e4565b82525050565b600061232682856120aa565b915061233282846120aa565b91508190509392505050565b6000602082019050612353600083018461201a565b92915050565b600060808201905061236e600083018761201a565b61237b602083018661201a565b612388604083018561230b565b818103606083015261239a8184612038565b905095945050505050565b60006040820190506123ba600083018561201a565b6123c7602083018461230b565b9392505050565b60006020820190506123e36000830184612029565b92915050565b600060208201905081810360008301526124038184612071565b905092915050565b60006020820190508181036000830152612424816120db565b9050919050565b60006020820190508181036000830152612444816120fe565b9050919050565b6000602082019050818103600083015261246481612121565b9050919050565b6000602082019050818103600083015261248481612144565b9050919050565b600060208201905081810360008301526124a481612167565b9050919050565b600060208201905081810360008301526124c48161218a565b9050919050565b600060208201905081810360008301526124e4816121ad565b9050919050565b60006020820190508181036000830152612504816121d0565b9050919050565b60006020820190508181036000830152612524816121f3565b9050919050565b6000602082019050818103600083015261254481612216565b9050919050565b6000602082019050818103600083015261256481612239565b9050919050565b600060208201905081810360008301526125848161225c565b9050919050565b600060208201905081810360008301526125a48161227f565b9050919050565b600060208201905081810360008301526125c4816122a2565b9050919050565b600060208201905081810360008301526125e4816122c5565b9050919050565b60006020820190508181036000830152612604816122e8565b9050919050565b6000602082019050612620600083018461230b565b92915050565b6000612630612641565b905061263c8282612862565b919050565b6000604051905090565b600067ffffffffffffffff8211156126665761266561299a565b5b61266f826129c9565b9050602081019050919050565b600081519050919050565b600081519050919050565b600082825260208201905092915050565b600082825260208201905092915050565b600081905092915050565b60006126ca826127e4565b91506126d5836127e4565b9250827fffffffffffffffffffffffffffffffffffffffffffffffffffffffffffffffff0382111561270a5761270961290d565b5b828201905092915050565b6000612720826127e4565b915061272b836127e4565b92508261273b5761273a61293c565b5b828204905092915050565b6000612751826127e4565b915061275c836127e4565b92508282101561276f5761276e61290d565b5b828203905092915050565b6000612785826127c4565b9050919050565b60008115159050919050565b60007fffffffff0000000000000000000000000000000000000000000000000000000082169050919050565b600073ffffffffffffffffffffffffffffffffffffffff82169050919050565b6000819050919050565b82818337600083830152505050565b60005b8381101561281b578082015181840152602081019050612800565b8381111561282a576000848401525b50505050565b6000600282049050600182168061284857607f821691505b6020821081141561285c5761285b61296b565b5b50919050565b61286b826129c9565b810181811067ffffffffffffffff8211171561288a5761288961299a565b5b80604052505050565b600061289e826127e4565b91507fffffffffffffffffffffffffffffffffffffffffffffffffffffffffffffffff8214156128d1576128d061290d565b5b600182019050919050565b60006128e7826127e4565b91506128f2836127e4565b9250826129025761290161293c565b5b828206905092915050565b7f4e487b7100000000000000000000000000000000000000000000000000000000600052601160045260246000fd5b7f4e487b7100000000000000000000000000000000000000000000000000000000600052601260045260246000fd5b7f4e487b7100000000000000000000000000000000000000000000000000000000600052602260045260246000fd5b7f4e487b7100000000000000000000000000000000000000000000000000000000600052604160045260246000fd5b6000601f19601f8301169050919050565b7f4552433732313a207472616e7366657220746f206e6f6e20455243373231526560008201527f63656976657220696d706c656d656e7465720000000000000000000000000000602082015250565b7f4552433732313a207472616e736665722066726f6d20696e636f72726563742060008201527f6f776e6572000000000000000000000000000000000000000000000000000000602082015250565b7f4552433732313a20746f6b656e20616c7265616479206d696e74656400000000600082015250565b7f4552433732313a207472616e7366657220746f20746865207a65726f2061646460008201527f7265737300000000000000000000000000000000000000000000000000000000602082015250565b7f4552433732313a20617070726f766520746f2063616c6c657200000000000000600082015250565b7f4552433732313a206f70657261746f7220717565727920666f72206e6f6e657860008201527f697374656e7420746f6b656e0000000000000000000000000000000000000000602082015250565b7f4552433732313a20617070726f76652063616c6c6572206973206e6f74206f7760008201527f6e6572206e6f7220617070726f76656420666f7220616c6c0000000000000000602082015250565b7f4552433732313a2062616c616e636520717565727920666f7220746865207a6560008201527f726f206164647265737300000000000000000000000000000000000000000000602082015250565b7f4552433732313a206f776e657220717565727920666f72206e6f6e657869737460008201527f656e7420746f6b656e0000000000000000000000000000000000000000000000602082015250565b7f45524337323155524953746f726167653a2055524920736574206f66206e6f6e60008201527f6578697374656e7420746f6b656e000000000000000000000000000000000000602082015250565b7f4552433732313a206d696e7420746f20746865207a65726f2061646472657373600082015250565b7f45524337323155524953746f726167653a2055524920717565727920666f722060008201527f6e6f6e6578697374656e7420746f6b656e000000000000000000000000000000602082015250565b7f4552433732313a20617070726f76656420717565727920666f72206e6f6e657860008201527f697374656e7420746f6b656e0000000000000000000000000000000000000000602082015250565b7f4552433732314d657461646174613a2055524920717565727920666f72206e6f60008201527f6e6578697374656e7420746f6b656e0000000000000000000000000000000000602082015250565b7f4552433732313a20617070726f76616c20746f2063757272656e74206f776e6560008201527f7200000000000000000000000000000000000000000000000000000000000000602082015250565b7f4552433732313a207472616e736665722063616c6c6572206973206e6f74206f60008201527f776e6572206e6f7220617070726f766564000000000000000000000000000000602082015250565b612e618161277a565b8114612e6c57600080fd5b50565b612e788161278c565b8114612e8357600080fd5b50565b612e8f81612798565b8114612e9a57600080fd5b50565b612ea6816127e4565b8114612eb157600080fd5b5056fea2646970667358221220c36e8a4e1d8667490224b4432577a1c482ec34e97bf224d702d82f8a3805d5c964736f6c63430008010033",
  "linkReferences": {},
  "deployedLinkReferences": {}
}